:203D000012010002FFFFFF40501D8E600100010203010A0600020000004001000902890007
:203D200001010080370904000001FF000000070586020002000904000101FF00010007050C
:203D400082010014010904000201FF00010007058201000C010904000301FF000100070502
:203D600082010004010904000401FF000100070582010004020904000501FF0001000705F5
:203D800082010004030904000601FF000100070582010004040904000701FF0001000705CD
:053DA000820100020495
:203DA6000902390002010080370904000001FF000000070586024000000904000101FF0010
:193DC600010007058201FF03010904000201FF00010007058201000201AF
:203DE000040309040E0373006900670072006F006B0010036600780032006C0061006600B9
:203E000077001C03480061006E00740065006B002000360030003200320042004500000040
:040000000201B9320E
:01000B0032C2
:0100130032BA
:01001B0032B2
:0100230032AA
:03002B00020322AB
:0300330002023393
:01003B003292
:01004300328A
:01004B003282
:01005300327A
:01005B003272
:01006300326A
:03006B0002023658
:03007300020B7FFE
:03007B00020792E7
:030083000202FB7B
:03008B0002025D11
:030093000202ACBA
:03009B0002078FCA
:0300A300020BA9A4
:0300AB00020BAA9B
:0300B300020BAB92
:0300BB00020BAE87
:0300C300020B7EAF
:0300CB00020B9B8A
:0300D300020B9C81
:0300DB00020B9E77
:0300E3000207947D
:0300EB00020C27DD
:0300F30002079071
:0300FB0002079168
:030103000207935D
:03010B0002079553
:030113000207964A
:03011B00020C0AC9
:03012300020BA725
:03012B00020BAC18
:03013300020BAF0D
:03013B00020BB103
:03014300020BA804
:03014B00020BADF7
:03015300020BB0EC
:03015B00020BB2E2
:03016300020C0982
:03016B00020B9FE5
:03017300020BA1DB
:03017B00020BA3D1
:03018300020BA5C7
:03018B00020BA0C4
:03019300020BA2BA
:03019B00020BA4B0
:0301A300020BA6A6
:0301AB00020B9DA7
:0301B300020B7DBF
:0C021200750800E4F509F50AC200C201FD
:030230000201B612
:0301B600020690AE
:20023300C2DC32C0E0C082C083C007C0D075D000D200AF9174EF5FF59190E65D7401F0D0B8
:20025300D0D007D083D082D0E032C021C0E0C0F0C082C083C007C006C005C004C003C0020C
:20027300C001C000C0D075D000758200120A69AF9174EF5FF59190E65D7410F0D0D0D0005A
:20029300D001D002D003D004D005D006D007D083D082D0F0D0E0D02132C021C0E0C0F0C056
:2002B30082C083C007C006C005C004C003C002C001C000C0D075D000758201120A69AF91B8
:2002D30074EF5FF59190E65D7420F0D0D0D000D001D002D003D004D005D006D007D083D00D
:2002F30082D0F0D0E0D02132C0E0C082C083C007C0D075D000D201AF9174EF5FF59190E644
:200313005D7408F0D0D0D007D083D082D0E032C0E0C0D0B287E509450A6013150974FFB5A4
:200333000902150AE509450A7004D2A0D2A1C2CFD0D0D0E032AF827401B51302801574025C
:20035300B5130280127405B51302800F740AB51312800C7E4880107E24800C7E0080087E70
:200373006C800475820022EF60047FE080027F1CEFF4FDE5A05205EF5E4DF5A0758201228D
:20039300AF82BF01028003BF021174072FFF90E618F090E61AEFF0758201227582002290A9
:2003B300E6F574FFF000000090E6047480F000000090E6047482F000000090E6047486F0CA
:2003D30000000090E604E4F02290E6F574FFF0000000E50870047F0680027F0290E648EF36
:2003F300F0221203B27EE87F03EE24FFFCEF34FFFD8C068D07EC4D70F0E5BB30E7FB00008C
:200413000090E6D07428F000000090E6D1E4F0E50870047F0680027F048FBBE4F509F50AC6
:20043300D2A0C2A122AF8290E680E0FE30E7067D1C7E3D80047DA67E3DEF75F010A4241698
:20045300FBE435F0FCEB2DFDEC3EFC7E80EFF508703590E612E4F090E61474E0F090E6E23D
:200473007401F08D828C838EF0120C0B90E625F074012DFAE43CFB8E078A828B838FF012BD
:200493000C0B90E624F02290E61274D8F090E614E4F090E6D204F08D828C838EF0120C0B63
:2004B300FF90E621F00DBD00010C8D828C838EF0120C0BFF90E62074075FF08D828C838EFC
:2004D300F0120C0BC423541F90E64004F022AF827E00EE75F007A4FCADF0242CF582ED349C
:2004F3000CF583E493FBB5070280080EBE0CE375820022EC242CFCED340CFD74062CF5825A
:20051300E43DF583E49390E601F075AF07759DE4759E008C828D83A3E49390E67CF08C82F5
:200533008D83A3A3E49390E67CF07401F0E4F0F0F0F0F08C828D83A3A3A39390E67CF08CF8
:20055300828D83A3A3A3A3E49390E67CF07401F0E4F0F0F0F0F08C828D83A3A3A3A3A39338
:2005730090E67CF07444F0F0E4F0F0F0F0F0F0F0F0F0F0F0F0F07F0090E67CE4F00FBF6067
:200593000040F575820122AD13AE14AF158D828E838FF0E508120B8075820122E582FF709A
:2005B30006850B82120438758201227582002275820122AF82C0071203DCD007C2A0D2A1E0
:2005D3007509E8750A03BFE0004016EF241B401190E68AE4F090E68BF090E6A0E0FE20E1F2
:2005F300F8BFE0028014BFE102800FBFE202801DBFE3028025BFE43E802FEF2420FF90E7C8
:2006130040E0F5138F821203487582012290E740E0F5821204E17582012290E740E0FFBFA3
:2006330001031203F57582012290E740E0F582120393758201227582002290E613E4F090A9
:20065300E615F090E6C2F090E6C37480F090E6C0E4F090E6F4F01203DC7513017582001270
:2006730003487513017582011203487582011204E175820212039375820002043890E60003
:20069300E0FF74E75FF012064DE500D2E890E668E0FF74084FF090E65CE0FF74014FF0E0FD
:2006B300FF74104FF0E0FF74204FF0E0FF74084FF0D2DDD2AF75CA0C75CBFE75C800D2ADA4
:2006D300D2CA90E680E0FF20E11890E680E0FF740A4FF09005DC120BB390E680E0FF74F76A
:2006F3005FF090E671E4F090E670F075B4FF75B280100002800312079710010280F390E6F7
:2007130082E0FF74C04FF090E6817401F043870100000000000000E50E702090E682E0FF71
:2007330030E60890E682E0FF20E0D390E682E0FF30E70890E682E0FF20E1C390E682E0FF76
:2007530030E60890E682E0FF20E01090E682E0FF30E79E90E682E0FF30E196900005120BC5
:1C077300B390E680E0FF74014FF090000F120BB390E680E0FF74FE5FF00207041C
:200C2C00308000030000EA1E8000030000AA180100020140CA100101020040CA0C0201026B
:200C4C000040CA080302020040CA040605020040CA020C0B020040CA011817020040CA32B7
:140C6C00302F020040CA147877020040CA0AF0EF020040CA05
:01078F003237
:010790003236
:010791003235
:010792003234
:010793003233
:010794003232
:010795003231
:010796003230
:0601E800E478FFF6D8FDEB
:12021E00750D00750E00750FA675103D75111C75123D77
:2007970090E6B9E0FF24F45003020893EF240A83F582EF241083F583E473C9DF93F593934A
:2007B7000B931128407407070807080808080808080812090DE58260030208A990E6A0E09F
:2007D700FF74014FF00208A912099AE58260030208A990E6A0E0FF74014FF00208A91209F3
:2007F700E8E58260030208A990E6A0E0FF74014FF00208A9120A940208A91205BEAF829028
:20081700E740EFF090E68AE4F090E68B04F00208A990E6BAE0F5821205C2E582707490E61E
:20083700A0E0FF74014FF0806990E6BCE0FF75130C7514007515408F8212059AE582700BE9
:2008570090E6A0E0FF74014FF0804790E740E50CF090E68AE4F090E68B04F0803590E6BCC9
:20087700E0FF90E6BAE0F50B8F821205AFE582702190E6A0E0FF74014FF0801690E6B9E055
:20089700F5821205C6E582700990E6A0E0FF74014FF090E6A0E0FF74804FF022AF828F0654
:2008B70053067FEE24F75003020909EE240A83F582EE240D83F583E473E2E6F909FD090181
:2008D700090508080809080909090990E6A022EF30E7067EA27FE680047EA17FE68E828F36
:2008F700832290E6A32290E6A42290E6A52290E6A6229000002290E6B8E0FFBF8002801FAB
:20091700BF81028005BF8273803490E740E4F090E741F090E68AF090E68B7402F08060E542
:200937000E25E0FFE50D420790E740EFF090E741E4F090E68AF090E68B7402F0804190E6A3
:20095700BCE0F5821208B3AE82AF838E048F05EE4F7003F582228C828D83E0FC30E0047F42
:200977000180027F0090E740EFF090E741E4F090E68AF090E68B7402F080047582002275D3
:2009970082012290E6B8E0FF6005BF0237801190E6BAE0FFBF0105750E008031758200227F
:2009B70090E6BAE0701A90E6BCE0F5821208B3AE82AF83E0FD5305FE8E828F83EDF0800D0F
:2009D7007582002290E6B9E0F5820205C67582012290E6B8E0FF6005BF026A801B90E6BA12
:2009F700E0FFBF0202806790E6BAE0FFBF0105750E01805A7582002290E6BAE0704390E6D3
:200A1700BCE0F5821208B3AE82AF83EE4F7003F582228E828F83E0FD4305018E828F83EDDD
:200A3700F090E6BCE0FF53070F90E6BCE05480C423541FFE90E6832FF0E0FF74204FF080AD
:200A57000D7582002290E6B9E0F5820205C675820122AF82D20210AF02C202EF600E750F81
:200A77001C75103D7511A675123D800C750FA675103D75111C75123DA20292AF2290E6BB7B
:200A9700E0FFBF01028019BF02028029BF03028033BF0603020B4FBF0703020B64020B7344
:200AB7007E007F3D8F0690E6B3EEF07E007F3D90E6B4EEF022AF1090E6B3EFF0AE0F90E6EB
:200AD700B4EEF0227DE07E3D7F8090E6BAE0F5137B008B020BEAB5130280428D008E018FE8
:200AF700028D828E838FF0120C0B28F8E439F9880589068A0774012DF9E43EFA8F048982DD
:200B17008A838CF0120C0BF9B9030280067D007E007F00ED4E6006C3E5139B50B5ED4E60BE
:200B37000D8E0790E6B3EFF090E6B4EDF02290E6A0E0FF74014FF0227E127F3D8F0690E6A9
:200B5700B3EEF07E127F3D90E6B4EEF022AF1290E6B3EFF0AE1190E6B4EEF02290E6A0E0CF
:060B7700FF74014FF022A3
:2001C6007900E94400601B7A00900C80780075923CE493F2A308B800020592D9F4DAF27534
:0201E60092FF86
:010B7D003245
:010B7E003244
:010B7F003243
:1B0B800020F71130F6138883A88220F509F6A8837583002280FEF280F5F02274
:010B9B003227
:010B9C003226
:010B9D003225
:010B9E003224
:03004300023F0079
:203F000002023600020B7F00020792000202FB0002025D000202AC0002078F00020BA800E3
:203F2000020BA900020BAA00020BAB00020BAE00020B7E00020B9B00020B9C00020B9E001A
:203F400002079400020BA800020C27000207900002079100020793000207950002079600CE
:203F6000020C0A00020BA800020BA800020BA800020BA700020BAC00020BAF00020BB10023
:203F8000020BAD00020BB000020BB200020C0900020B9F00020BA100020BA300020BA50018
:183FA000020BA000020BA200020BA400020BA600020B9D00020B7D0015
:010B9F003223
:010BA0003222
:2001EE007800E84400600A790075923CE4F309D8FC7800E84400600C7900903C00E4F0A3A7
:04020E00D8FCD9FA45
:010BA1003221
:010BA2003220
:010BA300321F
:010BA400321E
:010BA500321D
:010BA600321C
:010BA700321B
:010BA800321A
:010BA9003219
:010BAA003218
:010BAB003217
:010BAC003216
:010BAD003215
:010BAE003214
:010BAF003213
:010BB0003212
:010BB1003211
:010BB2003210
:200BB300AE82AF8390E600E05418C423541FFD70057CB1FD801C90E600E05418C423541F50
:200BD300FBBB01067A617B0180047AC27B028A048B058C138D14151374FFB513021514E5E0
:160BF30013451470F1EE24FFFAEF34FFFB8A068B07EA4B70DD2231
:010C090032B8
:010C0A0032B7
:0D01B900758121120C28E58260030201B659
:1C0C0B0020F71430F6148883A88220F507E6A88375830022E280F7E49322E022F8
:010C2700329A
:040C280075820022AF
:00000001FF
